:100000000C942A001895000018950000189500001F
:10001000189500001895000018950000189500002C
:10002000189500001895000018950000189500001C
:10003000189500001895000018950000189500000C
:1000400018950000189500001895000018950000FC
:10005000189500008FE58DBFC8E3E0E24E2E84E0E6
:100060008EBFD4E0F4E05F2EA89584B7082E877F7A
:1000700084BF88E1992781BD91BDEEEFF3E0A0E652
:10008000B0E088278D933197E9F70E94D1010E9453
:10009000560166248FEF84BB8FEF81BBB89880E058
:1000A0008093600080E0809361008EE00E941F02D8
:1000B0008CE00E941F02E2EDF4E00E94AF01E1E05B
:1000C000F0E00E94C8010E94B60180E991E00E9420
:1000D0004C028FE711E00E94C501EAEDF4E00E94B6
:1000E000AF018FEB11E00E94C501EAEEF4E00E943F
:1000F000AF01B09B0C94F20087E090E08A939A9352
:100100000E945D01A0E6B0E00C9300916000013018
:1001100011F00C948F000E94F6000C94B500023090
:1001200011F00C9497000E94FE000C94B50003306F
:1001300011F00C949F000E9406010C94B50004304D
:1001400011F00C94A7000E940E010C94B50005302C
:1001500011F00C94AF000E9416010C94B50006300B
:1001600011F00C94B5000E941E0187E090E08A9384
:100170009A930E945D01A1E6B0E00C9300916100AA
:10018000013011F00C94C8000E9426010C94EE007E
:10019000023011F00C94D0000E942E010C94EE005D
:1001A000033011F00C94D8000E9436010C94EE003C
:1001B000043011F00C94E0000E943E010C94EE001B
:1001C000053011F00C94E8000E9446010C94EE00FA
:1001D000063011F00C94EE000E944E018EE190E08A
:1001E0000E944C020C947900F894FFCFA99AAA9A25
:1001F000A898AB98AC98AD98AE980895A89AA99A8B
:10020000AE9AAC9AAB9AAA98AD980895A89AA99A72
:10021000AE9AAA9AAB9AAC98AD980895A99AAA9A60
:10022000AE9AAD9AA898AB98AC980895A89AAD9A52
:10023000AE9AAA9AAB9AA998AC980895A89AAD9A42
:10024000AE9AAA9AAB9AAC9AA9980895919A929A62
:10025000909893989498959896980895909A919AD2
:10026000969A949A939A929895980895909A919ABA
:10027000969A929A939A949895980895919A929AA8
:10028000969A959A9098939894980895909A959A9A
:10029000969A929A939A919894980895909A959A8A
:1002A000969A929A939A949A9198089515E000E0FC
:1002B0000093620010936300089540916200509192
:1002C00063000DEF13E40E945B020D53114600938F
:1002D0006200109363005991499127D0089509D085
:1002E0000E945B0200FC10D0089503D01ED001F8DC
:1002F000F9CF0024E89457FF02C009D0689400F8B1
:100300000BD010F80124089502D009D0089550951B
:1003100040954F5F5F4F0895E89417FF089500954B
:1003200010950F5F1F4F68940895352F242FE89480
:10033000452B11F468940895512F402F0027112761
:1003400080E1440F551F001F111F021B130B41605A
:1003500018F4020F131F4E7F8A9599F708950E9493
:100360006502802D11F065D0FACF089581E067D045
:1003700015D080E864C08FE7213039F08FEB223050
:1003800021F08FE8233009F08FEC810F0C941F02CD
:1003900088EE93E081D03197D9F7089583E09927CB
:1003A0007BC08AEF90E00E944C02D09AD19AD29AF8
:1003B000D39AD49AD59ADD9885E090E00E944C02B9
:1003C000DC98D898D998DA9ADB9ADC9AEF93FF9365
:1003D000E4ECF0E00E944002FF91EF91DC9859D0EC
:1003E000DC9AEF93FF93E4ECF0E00E944002FF916F
:1003F000EF91DC984ED0DC9AEF93FF93E4ECF0E0C1
:100400000E944002FF91EF91DC9843D0DB98DC9A88
:10041000EF93FF93E4ECF0E00E944002FF91EF9134
:10042000DC9837D088E20BD08EE009D086E007D088
:100430000895DD9A829505D004D02BD00895DD98DB
:10044000F9CF859510F4DB9A01C0DB98859510F4FF
:10045000DA9A01C0DA98859510F4D99A01C0D99832
:10046000859510F4D89A01C0D898DC9AEF93FF9341
:10047000E4ECF0E00E944002FF91EF91DC980895D7
:100480003197F1F70895689462F80895E89462F856
:10049000089581E090E000C0EF93FF93EE27E82BF2
:1004A000E92B31F0E0EDF7E03197F1F70197D1F763
:1004B000FF91EF9108950F92B801469F8001479FE9
:1004C000100D569F100D0F900895C895319600207D
:1004D000089548656C6C6F21000050757368207436
:1004E000686520627574746F6E00746F20726F6C33
:0C04F0006C206F722073746F702E00007F
:00000001FF
